:100000000C9489000C94B1000C94B1000C94B100D4
:100010000C94B1000C94B1000C94B1000C94B1009C
:100020000C94B1000C94B1000C94B1000C94B1008C
:100030000C94B1000C94B1000C94B1000C94B1007C
:100040000C944B030C94B1000C94BB030C949503DB
:100050000C94B1000C94B1000C94B1000C94B1005C
:100060000C94B1000C94B1004D55582043443430E9
:10007000353142206C6973746F2E20457363726949
:10008000626920756E2063616E616C20283020618A
:10009000203729207920456E7465722E00202D3E70
:1000A00020414443203D200043616E616C200029C3
:1000B000002020284342413D0043616E616C2000D6
:1000C0000000000800020100000304070000000017
:1000D0000000000000000000250028002B000000A8
:1000E0000000240027002A0004040404040404047B
:1000F00002020202020203030303030301020408D3
:100100001020408001020408102001020408102081
:100110005F0511241FBECFEFD8E0DEBFCDBF21E0C9
:10012000A6E1B1E001C01D92AE3BB207E1F711E0DC
:10013000A0E0B1E0E0EAFBE002C005900D92A6313C
:10014000B107D9F710E0C9E8D0E004C02197FE015B
:100150000E94C805C838D107C9F70E94ED030C9466
:10016000CE050C94000090E0FC01E450FF4F249178
:1001700088519F4FFC018491882399F090E0880F6B
:10018000991FFC01E252FF4FA591B491FC01EC5282
:10019000FF4F859194918FB7F894EC91E22BEC93FB
:1001A0008FBF089590E0FC01E054FF4F2491FC01C3
:1001B000E450FF4F3491FC01E851FF4FE491EE23EE
:1001C000C9F0222339F0233001F1A8F4213019F1CC
:1001D000223029F1F0E0EE0FFF1FEC52FF4FA59106
:1001E000B4918FB7F894EC91611126C030953E23FD
:1001F0003C938FBF08952730A9F02830C9F02430F0
:1002000049F7809180008F7D03C0809180008F77B7
:1002100080938000DFCF84B58F7784BDDBCF84B53A
:100220008F7DFBCF8091B0008F778093B000D2CFCD
:100230008091B0008F7DF9CF3E2BDACF3FB7F89495
:100240008091190190911A01A0911B01B0911C019C
:1002500026B5A89B05C02F3F19F00196A11DB11D21
:100260003FBFBA2FA92F982F8827BC01CD01620F5D
:10027000711D811D911D42E0660F771F881F991F18
:100280004A95D1F70895AF92BF92CF92DF92EF9245
:10029000FF920F931F93CF93DF936C017B018B0130
:1002A000040F151FEB015E01AE18BF08C017D10780
:1002B00059F06991D601ED91FC910190F081E02D0A
:1002C000C6010995892B79F7C501DF91CF911F915F
:1002D0000F91FF90EF90DF90CF90BF90AF90089577
:1002E000FC01538D448D252F30E0842F90E0821B3C
:1002F000930B541710F0CF96089501970895FC01C1
:10030000918D828D981761F0A28DAE0FBF2FB11D18
:100310005D968C91928D9F5F9F73928F90E0089570
:100320008FEF9FEF0895FC01918D828D981731F02A
:10033000828DE80FF11D858D90E008958FEF9FEF7E
:1003400008952FB7F89480911D0190911E01A091FE
:100350001F01B09120012FBF8093290190932A01A2
:10036000A0932B01B0932C0181E291E00E949301B4
:1003700097FF26C02FB7F89480911D0190911E0120
:10038000A0911F01B09120012FBF409129015091F0
:100390002A0160912B0170912C01841B950BA60BF7
:1003A000B70B409125015091260160912701709172
:1003B000280184179507A607B707B0F28FEF9FEFC4
:1003C0000895FC01918D228D892F90E0805C9F4FD4
:1003D000821B91098F739927089581E291E00E9411
:1003E000E10121E0892B09F420E0822F089580E0CB
:1003F00090E0892B29F00E94ED0181110C940000FE
:100400000895FC01A48DA80FB92FB11DA35ABF4FA9
:100410002C91848D90E001968F739927848FA68903
:10042000B7892C93A089B1898C91837080648C9357
:10043000938D848D981306C00288F389E02D808106
:100440008F7D80830895EF92FF920F931F93CF9338
:10045000DF93EC0181E0888F9B8D8C8D98131AC0FF
:10046000E889F989808185FF15C09FB7F894EE89E6
:10047000FF896083E889F989808183708064808343
:100480009FBF81E090E0DF91CF911F910F91FF908E
:10049000EF900895F62E0B8D10E00F5F1F4F0F7336
:1004A0001127E02E8C8D8E110CC00FB607FCFACFF1
:1004B000E889F989808185FFF5CFCE010E9401028C
:1004C000F1CFEB8DEC0FFD2FF11DE35AFF4FF082C2
:1004D0009FB7F8940B8FEA89FB8980818062CFCF28
:1004E0000F931F93CF93DF938C01D0E0C0E0F8010E
:1004F000EC0FFD1F6491662341F081E291E00E94C0
:100500002302892B11F02196F2CFCE01DF91CF91FA
:100510001F910F910895CF93DF93EC01888D88236D
:10052000B9F0AA89BB89E889F9898C9185FD03C056
:10053000808186FD0DC00FB607FCF7CF8C9185FF3B
:10054000F2CF808185FFEDCFCE010E940102E9CF7D
:10055000DF91CF910895CF93DF93EC01682F617005
:1005600082E00E94D200BE0175956795617083E0BC
:100570000E94D200D595C795D595C7956C2F61700F
:1005800084E0DF91CF910C94D2008F929F92AF9232
:10059000BF920F931F93CF93DF93CDB7DEB7A19791
:1005A0000FB6F894DEBF0FBECDBF19A2423008F4DB
:1005B0004AE08E010F5D1F4F842E912CB12CA12C8F
:1005C000A50194010E94A605E62FB901CA01EA30EF
:1005D00044F5E05DD801EE938D01232B242B252BD0
:1005E00079F790E080E0109769F0FD01019000201C
:1005F000E9F73197AF014A1B5B0BBD0181E291E046
:100600000E944301A1960FB6F894DEBF0FBECDBF86
:10061000DF91CF911F910F91BF90AF909F908F90DE
:100620000895E95CD7CF42E050E062E171E081E2F9
:1006300091E00C944301CF92DF92EF92FF92CF931F
:10064000DF936C01990FEE08FF08F7FE19C06DE209
:1006500081E291E00E942302EC0166277727CB011B
:100660006C197D098E099F094AE00E94C5028C0F12
:100670009D1FDF91CF91FF90EF90DF90CF90089575
:100680004AE0C701B601DF91CF91FF90EF90DF9074
:10069000CF900C94C5021F920F920FB60F921124A7
:1006A0002F933F938F939F93AF93BF9380911D019F
:1006B00090911E01A0911F01B0912001309118016D
:1006C00023E0230F2D3758F50196A11DB11D20936E
:1006D000180180931D0190931E01A0931F01B093F8
:1006E00020018091190190911A01A0911B01B091F4
:1006F0001C010196A11DB11D8093190190931A014F
:10070000A0931B01B0931C01BF91AF919F918F915A
:100710003F912F910F900FBE0F901F90189526E8D4
:10072000230F0296A11DB11DD2CF1F920F920FB6BB
:100730000F9211242F933F934F935F936F937F9367
:100740008F939F93AF93BF93EF93FF9381E291E0D9
:100750000E940102FF91EF91BF91AF919F918F9104
:100760007F916F915F914F913F912F910F900FBEAD
:100770000F901F9018951F920F920FB60F92112491
:100780002F938F939F93EF93FF93E0913101F0911B
:1007900032018081E0913701F091380182FD1BC068
:1007A000908180913A018F5F8F7320913B01821776
:1007B00041F0E0913A01F0E0EF5DFE4F958F8093BC
:1007C0003A01FF91EF919F918F912F910F900FBE62
:1007D0000F901F9018958081F4CF789484B5826033
:1007E00084BD84B5816084BD85B5826085BD85B5D5
:1007F000816085BD80916E00816080936E00109253
:1008000081008091810082608093810080918100CD
:10081000816080938100809180008160809380005E
:100820008091B10084608093B1008091B0008160BC
:100830008093B00080917A00846080937A008091E8
:100840007A00826080937A0080917A008160809340
:100850007A0080917A00806880937A001092C100BB
:10086000E0913101F091320182E08083E0912D012D
:10087000F0912E011082E0912F01F091300180E182
:10088000808310923901E0913501F091360186E0C4
:100890008083E0913301F091340180818061808315
:1008A000E0913301F0913401808188608083E09190
:1008B0003301F0913401808180688083E0913301BD
:1008C000F091340180818F7D808382E00E94B300AB
:1008D00083E00E94B30084E00E94B30085E00E94A0
:1008E000B30060E085E00E94D200809116019091F3
:1008F00017010E94AB0288E690E00E9470020E94FD
:10090000130310E4C0E0D0E081E291E00E94E10135
:10091000181619060CF078C00E94A101FC0197FD81
:10092000CAC08D32910521F0C0970A9708F0BCC06B
:10093000C12CD12C760100E0E130F105D9F0ED3287
:10094000F10509F4B6C0CF01C0970A9798F4AAE060
:10095000B0E0A70196010E948C056F01FF0FEE0821
:10096000FF08C60ED71EE81EF91E20E3C21AD108E2
:10097000E108F10881E291E00E947F010E94A1015B
:10098000FC01C0970A97C0F2E130F105A9F20023FB
:1009900041F0F094E094D094C094C11CD11CE11CAF
:1009A000F11C88E0C816D10478F5D0921701C092E6
:1009B0001601C6010E94AB0289EB90E00E94700212
:1009C000C6010E941B0381EB90E00E94700280919F
:1009D000160182FB882780F990E00E941B0380911A
:1009E00016018695817090E00E941B03809116018C
:1009F00090911701817099270E941B038FEA90E064
:100A00000E9470020E94130388EA90E00E94700224
:100A100080911601909117010E941B038DE990E0CF
:100A20000E94700210937C0080917A008064809311
:100A30007A0080917A0086FDFCCF809178009091B9
:100A400079000E941B030E9413030E941E014B01A8
:100A50005C018AEFC82ED12CE12CF12C0E941E01E2
:100A6000681979098A099B09683E734081059105D7
:100A7000A8F321E0C21AD108E108F10888EE880E37
:100A800083E0981EA11CB11CC114D104E104F1043F
:100A900029F7209709F438CF0E94ED01882309F443
:100AA00033CF0E94000030CF81E291E00E947F01AD
:100AB00033CF01E05FCFC12CD12C760172CFE1E2C0
:100AC000F1E01382128288EE93E0A0E0B0E084832C
:100AD0009583A683B78384E091E09183808385EC3E
:100AE00090E09587848784EC90E09787868780ECF8
:100AF00090E0918B808B81EC90E0938B828B82ECE9
:100B000090E0958B848B86EC90E0978B868B118E92
:100B1000128E138E148E08950E949705A59F900D36
:100B2000B49F900DA49F800D911D11240895A29F44
:100B3000B001B39FC001A39F700D811D1124911DB1
:100B4000B29F700D811D1124911D0895A1E21A2EEE
:100B5000AA1BBB1BFD010DC0AA1FBB1FEE1FFF1F61
:100B6000A217B307E407F50720F0A21BB30BE40BB1
:100B7000F50B661F771F881F991F1A9469F76095F8
:100B80007095809590959B01AC01BD01CF010895B2
:100B9000EE0FFF1F0590F491E02D0994F894FFCF1C
:100BA000000000002302430170018B02E1017F017C
:060BB00093010D0A000094
:00000001FF
